{
  "contractName": "Minter",
  "abi": [
    {
      "inputs": [],
      "stateMutability": "nonpayable",
      "type": "constructor"
    },
    {
      "anonymous": false,
      "inputs": [
        {
          "indexed": true,
          "internalType": "address",
          "name": "owner",
          "type": "address"
        },
        {
          "indexed": true,
          "internalType": "address",
          "name": "approved",
          "type": "address"
        },
        {
          "indexed": true,
          "internalType": "uint256",
          "name": "tokenId",
          "type": "uint256"
        }
      ],
      "name": "Approval",
      "type": "event"
    },
    {
      "anonymous": false,
      "inputs": [
        {
          "indexed": true,
          "internalType": "address",
          "name": "owner",
          "type": "address"
        },
        {
          "indexed": true,
          "internalType": "address",
          "name": "operator",
          "type": "address"
        },
        {
          "indexed": false,
          "internalType": "bool",
          "name": "approved",
          "type": "bool"
        }
      ],
      "name": "ApprovalForAll",
      "type": "event"
    },
    {
      "anonymous": false,
      "inputs": [
        {
          "indexed": false,
          "internalType": "uint256",
          "name": "newID",
          "type": "uint256"
        }
      ],
      "name": "Minted",
      "type": "event"
    },
    {
      "anonymous": false,
      "inputs": [
        {
          "indexed": true,
          "internalType": "address",
          "name": "previousOwner",
          "type": "address"
        },
        {
          "indexed": true,
          "internalType": "address",
          "name": "newOwner",
          "type": "address"
        }
      ],
      "name": "OwnershipTransferred",
      "type": "event"
    },
    {
      "anonymous": false,
      "inputs": [
        {
          "indexed": true,
          "internalType": "address",
          "name": "from",
          "type": "address"
        },
        {
          "indexed": true,
          "internalType": "address",
          "name": "to",
          "type": "address"
        },
        {
          "indexed": true,
          "internalType": "uint256",
          "name": "tokenId",
          "type": "uint256"
        }
      ],
      "name": "Transfer",
      "type": "event"
    },
    {
      "inputs": [
        {
          "internalType": "address",
          "name": "to",
          "type": "address"
        },
        {
          "internalType": "uint256",
          "name": "tokenId",
          "type": "uint256"
        }
      ],
      "name": "approve",
      "outputs": [],
      "stateMutability": "nonpayable",
      "type": "function"
    },
    {
      "inputs": [
        {
          "internalType": "address",
          "name": "owner",
          "type": "address"
        }
      ],
      "name": "balanceOf",
      "outputs": [
        {
          "internalType": "uint256",
          "name": "",
          "type": "uint256"
        }
      ],
      "stateMutability": "view",
      "type": "function"
    },
    {
      "inputs": [],
      "name": "contractName",
      "outputs": [
        {
          "internalType": "string",
          "name": "",
          "type": "string"
        }
      ],
      "stateMutability": "view",
      "type": "function"
    },
    {
      "inputs": [
        {
          "internalType": "uint256",
          "name": "tokenId",
          "type": "uint256"
        }
      ],
      "name": "getApproved",
      "outputs": [
        {
          "internalType": "address",
          "name": "",
          "type": "address"
        }
      ],
      "stateMutability": "view",
      "type": "function"
    },
    {
      "inputs": [
        {
          "internalType": "address",
          "name": "owner",
          "type": "address"
        },
        {
          "internalType": "address",
          "name": "operator",
          "type": "address"
        }
      ],
      "name": "isApprovedForAll",
      "outputs": [
        {
          "internalType": "bool",
          "name": "",
          "type": "bool"
        }
      ],
      "stateMutability": "view",
      "type": "function"
    },
    {
      "inputs": [],
      "name": "mintCost",
      "outputs": [
        {
          "internalType": "uint256",
          "name": "",
          "type": "uint256"
        }
      ],
      "stateMutability": "view",
      "type": "function"
    },
    {
      "inputs": [],
      "name": "name",
      "outputs": [
        {
          "internalType": "string",
          "name": "",
          "type": "string"
        }
      ],
      "stateMutability": "view",
      "type": "function"
    },
    {
      "inputs": [],
      "name": "owner",
      "outputs": [
        {
          "internalType": "address",
          "name": "",
          "type": "address"
        }
      ],
      "stateMutability": "view",
      "type": "function"
    },
    {
      "inputs": [
        {
          "internalType": "uint256",
          "name": "tokenId",
          "type": "uint256"
        }
      ],
      "name": "ownerOf",
      "outputs": [
        {
          "internalType": "address",
          "name": "",
          "type": "address"
        }
      ],
      "stateMutability": "view",
      "type": "function"
    },
    {
      "inputs": [],
      "name": "paused",
      "outputs": [
        {
          "internalType": "bool",
          "name": "",
          "type": "bool"
        }
      ],
      "stateMutability": "view",
      "type": "function"
    },
    {
      "inputs": [],
      "name": "renounceOwnership",
      "outputs": [],
      "stateMutability": "nonpayable",
      "type": "function"
    },
    {
      "inputs": [
        {
          "internalType": "address",
          "name": "from",
          "type": "address"
        },
        {
          "internalType": "address",
          "name": "to",
          "type": "address"
        },
        {
          "internalType": "uint256",
          "name": "tokenId",
          "type": "uint256"
        }
      ],
      "name": "safeTransferFrom",
      "outputs": [],
      "stateMutability": "nonpayable",
      "type": "function"
    },
    {
      "inputs": [
        {
          "internalType": "address",
          "name": "from",
          "type": "address"
        },
        {
          "internalType": "address",
          "name": "to",
          "type": "address"
        },
        {
          "internalType": "uint256",
          "name": "tokenId",
          "type": "uint256"
        },
        {
          "internalType": "bytes",
          "name": "_data",
          "type": "bytes"
        }
      ],
      "name": "safeTransferFrom",
      "outputs": [],
      "stateMutability": "nonpayable",
      "type": "function"
    },
    {
      "inputs": [
        {
          "internalType": "address",
          "name": "operator",
          "type": "address"
        },
        {
          "internalType": "bool",
          "name": "approved",
          "type": "bool"
        }
      ],
      "name": "setApprovalForAll",
      "outputs": [],
      "stateMutability": "nonpayable",
      "type": "function"
    },
    {
      "inputs": [
        {
          "internalType": "bytes4",
          "name": "interfaceId",
          "type": "bytes4"
        }
      ],
      "name": "supportsInterface",
      "outputs": [
        {
          "internalType": "bool",
          "name": "",
          "type": "bool"
        }
      ],
      "stateMutability": "view",
      "type": "function"
    },
    {
      "inputs": [],
      "name": "symbol",
      "outputs": [
        {
          "internalType": "string",
          "name": "",
          "type": "string"
        }
      ],
      "stateMutability": "view",
      "type": "function"
    },
    {
      "inputs": [
        {
          "internalType": "address",
          "name": "from",
          "type": "address"
        },
        {
          "internalType": "address",
          "name": "to",
          "type": "address"
        },
        {
          "internalType": "uint256",
          "name": "tokenId",
          "type": "uint256"
        }
      ],
      "name": "transferFrom",
      "outputs": [],
      "stateMutability": "nonpayable",
      "type": "function"
    },
    {
      "inputs": [
        {
          "internalType": "address",
          "name": "newOwner",
          "type": "address"
        }
      ],
      "name": "transferOwnership",
      "outputs": [],
      "stateMutability": "nonpayable",
      "type": "function"
    },
    {
      "inputs": [],
      "name": "getAllTokens",
      "outputs": [
        {
          "components": [
            {
              "internalType": "uint256",
              "name": "id",
              "type": "uint256"
            },
            {
              "internalType": "string",
              "name": "uri",
              "type": "string"
            }
          ],
          "internalType": "struct Minter.allTokens[]",
          "name": "",
          "type": "tuple[]"
        }
      ],
      "stateMutability": "view",
      "type": "function"
    },
    {
      "inputs": [
        {
          "internalType": "address",
          "name": "recipient",
          "type": "address"
        },
        {
          "internalType": "string",
          "name": "uri",
          "type": "string"
        }
      ],
      "name": "mint",
      "outputs": [
        {
          "internalType": "uint256",
          "name": "",
          "type": "uint256"
        }
      ],
      "stateMutability": "payable",
      "type": "function"
    },
    {
      "inputs": [
        {
          "internalType": "uint256",
          "name": "tokenID",
          "type": "uint256"
        }
      ],
      "name": "tokenURI",
      "outputs": [
        {
          "internalType": "string",
          "name": "",
          "type": "string"
        }
      ],
      "stateMutability": "view",
      "type": "function"
    },
    {
      "inputs": [],
      "name": "withdraw",
      "outputs": [],
      "stateMutability": "payable",
      "type": "function"
    },
    {
      "inputs": [
        {
          "internalType": "bool",
          "name": "_state",
          "type": "bool"
        }
      ],
      "name": "pause",
      "outputs": [],
      "stateMutability": "nonpayable",
      "type": "function"
    },
    {
      "inputs": [
        {
          "internalType": "uint256",
          "name": "_newMintCost",
          "type": "uint256"
        }
      ],
      "name": "setCost",
      "outputs": [],
      "stateMutability": "nonpayable",
      "type": "function"
    },
    {
      "inputs": [
        {
          "internalType": "address",
          "name": "_tokenContractAddress",
          "type": "address"
        }
      ],
      "name": "withdrawERC20",
      "outputs": [],
      "stateMutability": "nonpayable",
      "type": "function"
    }
  ],
  "bytecode": "0x608060405260405180608001604052806044815260200162003895604491396009908051906020019062000035929190620001fe565b50662386f26fc10000600a556000600b60006101000a81548160ff0219169083151502179055503480156200006957600080fd5b506040518060400160405280601481526020017f44657620426f6f7463616d702050726f6a6563740000000000000000000000008152506040518060400160405280600381526020017f44425000000000000000000000000000000000000000000000000000000000008152508160009080519060200190620000ee929190620001fe565b50806001908051906020019062000107929190620001fe565b5050506200012a6200011e6200013060201b60201c565b6200013860201b60201c565b62000313565b600033905090565b6000600660009054906101000a900473ffffffffffffffffffffffffffffffffffffffff16905081600660006101000a81548173ffffffffffffffffffffffffffffffffffffffff021916908373ffffffffffffffffffffffffffffffffffffffff1602179055508173ffffffffffffffffffffffffffffffffffffffff168173ffffffffffffffffffffffffffffffffffffffff167f8be0079c531659141344cd1fd0a4f28419497f9722a3daafe3b4186f6b6457e060405160405180910390a35050565b8280546200020c90620002ae565b90600052602060002090601f0160209004810192826200023057600085556200027c565b82601f106200024b57805160ff19168380011785556200027c565b828001600101855582156200027c579182015b828111156200027b5782518255916020019190600101906200025e565b5b5090506200028b91906200028f565b5090565b5b80821115620002aa57600081600090555060010162000290565b5090565b60006002820490506001821680620002c757607f821691505b60208210811415620002de57620002dd620002e4565b5b50919050565b7f4e487b7100000000000000000000000000000000000000000000000000000000600052602260045260246000fd5b61357280620003236000396000f3fe6080604052600436106101665760003560e01c806370a08231116100d1578063b88d4fde1161008a578063d0def52111610064578063d0def52114610509578063e985e9c514610539578063f2fde38b14610576578063f4f3b2001461059f57610166565b8063b88d4fde14610478578063bdb4b848146104a1578063c87b56dd146104cc57610166565b806370a082311461037a578063715018a6146103b757806375d0c0dc146103ce5780638da5cb5b146103f957806395d89b4114610424578063a22cb4651461044f57610166565b80632a5c792a116101235780632a5c792a1461028b5780633ccfd60b146102b657806342842e0e146102c057806344a0d68a146102e95780635c975abb146103125780636352211e1461033d57610166565b806301ffc9a71461016b57806302329a29146101a857806306fdde03146101d1578063081812fc146101fc578063095ea7b31461023957806323b872dd14610262575b600080fd5b34801561017757600080fd5b50610192600480360381019061018d919061251f565b6105c8565b60405161019f9190612edc565b60405180910390f35b3480156101b457600080fd5b506101cf60048036038101906101ca91906124cd565b6106aa565b005b3480156101dd57600080fd5b506101e6610743565b6040516101f39190612ef7565b60405180910390f35b34801561020857600080fd5b50610223600480360381019061021e9190612571565b6107d5565b6040516102309190612e2a565b60405180910390f35b34801561024557600080fd5b50610260600480360381019061025b9190612491565b61085a565b005b34801561026e57600080fd5b5061028960048036038101906102849190612337565b610972565b005b34801561029757600080fd5b506102a06109d2565b6040516102ad9190612eba565b60405180910390f35b6102be610afd565b005b3480156102cc57600080fd5b506102e760048036038101906102e29190612337565b610bb9565b005b3480156102f557600080fd5b50610310600480360381019061030b9190612571565b610bd9565b005b34801561031e57600080fd5b50610327610c5f565b6040516103349190612edc565b60405180910390f35b34801561034957600080fd5b50610364600480360381019061035f9190612571565b610c72565b6040516103719190612e2a565b60405180910390f35b34801561038657600080fd5b506103a1600480360381019061039c91906122d2565b610d24565b6040516103ae9190613159565b60405180910390f35b3480156103c357600080fd5b506103cc610ddc565b005b3480156103da57600080fd5b506103e3610e64565b6040516103f09190612ef7565b60405180910390f35b34801561040557600080fd5b5061040e610ef2565b60405161041b9190612e2a565b60405180910390f35b34801561043057600080fd5b50610439610f1c565b6040516104469190612ef7565b60405180910390f35b34801561045b57600080fd5b5061047660048036038101906104719190612401565b610fae565b005b34801561048457600080fd5b5061049f600480360381019061049a9190612386565b61112f565b005b3480156104ad57600080fd5b506104b6611191565b6040516104c39190613159565b60405180910390f35b3480156104d857600080fd5b506104f360048036038101906104ee9190612571565b611197565b6040516105009190612ef7565b60405180910390f35b610523600480360381019061051e919061243d565b611254565b6040516105309190613159565b60405180910390f35b34801561054557600080fd5b50610560600480360381019061055b91906122fb565b611393565b60405161056d9190612edc565b60405180910390f35b34801561058257600080fd5b5061059d600480360381019061059891906122d2565b611427565b005b3480156105ab57600080fd5b506105c660048036038101906105c191906122d2565b61151f565b005b60007f80ac58cd000000000000000000000000000000000000000000000000000000007bffffffffffffffffffffffffffffffffffffffffffffffffffffffff1916827bffffffffffffffffffffffffffffffffffffffffffffffffffffffff1916148061069357507f5b5e139f000000000000000000000000000000000000000000000000000000007bffffffffffffffffffffffffffffffffffffffffffffffffffffffff1916827bffffffffffffffffffffffffffffffffffffffffffffffffffffffff1916145b806106a357506106a2826116f2565b5b9050919050565b6106b261175c565b73ffffffffffffffffffffffffffffffffffffffff166106d0610ef2565b73ffffffffffffffffffffffffffffffffffffffff1614610726576040517f08c379a000000000000000000000000000000000000000000000000000000000815260040161071d906130b9565b60405180910390fd5b80600b60006101000a81548160ff02191690831515021790555050565b606060008054610752906133c7565b80601f016020809104026020016040519081016040528092919081815260200182805461077e906133c7565b80156107cb5780601f106107a0576101008083540402835291602001916107cb565b820191906000526020600020905b8154815290600101906020018083116107ae57829003601f168201915b5050505050905090565b60006107e082611764565b61081f576040517f08c379a000000000000000000000000000000000000000000000000000000000815260040161081690613099565b60405180910390fd5b6004600083815260200190815260200160002060009054906101000a900473ffffffffffffffffffffffffffffffffffffffff169050919050565b600061086582610c72565b90508073ffffffffffffffffffffffffffffffffffffffff168373ffffffffffffffffffffffffffffffffffffffff1614156108d6576040517f08c379a00000000000000000000000000000000000000000000000000000000081526004016108cd906130f9565b60405180910390fd5b8073ffffffffffffffffffffffffffffffffffffffff166108f561175c565b73ffffffffffffffffffffffffffffffffffffffff16148061092457506109238161091e61175c565b611393565b5b610963576040517f08c379a000000000000000000000000000000000000000000000000000000000815260040161095a90613019565b60405180910390fd5b61096d83836117d0565b505050565b61098361097d61175c565b82611889565b6109c2576040517f08c379a00000000000000000000000000000000000000000000000000000000081526004016109b990613119565b60405180910390fd5b6109cd838383611967565b505050565b606060006109e06007611bc3565b905060008167ffffffffffffffff811115610a24577f4e487b7100000000000000000000000000000000000000000000000000000000600052604160045260246000fd5b604051908082528060200260200182016040528015610a5d57816020015b610a4a6120b2565b815260200190600190039081610a425790505b50905060005b82811015610af457610a7481611764565b15610ae1576000610a8482611197565b9050604051806040016040528083815260200182815250838381518110610ad4577f4e487b7100000000000000000000000000000000000000000000000000000000600052603260045260246000fd5b6020026020010181905250505b8080610aec906133f9565b915050610a63565b50809250505090565b610b0561175c565b73ffffffffffffffffffffffffffffffffffffffff16610b23610ef2565b73ffffffffffffffffffffffffffffffffffffffff1614610b79576040517f08c379a0000000000000000000000000000000000000000000000000000000008152600401610b70906130b9565b60405180910390fd5b3373ffffffffffffffffffffffffffffffffffffffff166108fc479081150290604051600060405180830381858888f19350505050610bb757600080fd5b565b610bd48383836040518060200160405280600081525061112f565b505050565b610be161175c565b73ffffffffffffffffffffffffffffffffffffffff16610bff610ef2565b73ffffffffffffffffffffffffffffffffffffffff1614610c55576040517f08c379a0000000000000000000000000000000000000000000000000000000008152600401610c4c906130b9565b60405180910390fd5b80600a8190555050565b600b60009054906101000a900460ff1681565b6000806002600084815260200190815260200160002060009054906101000a900473ffffffffffffffffffffffffffffffffffffffff169050600073ffffffffffffffffffffffffffffffffffffffff168173ffffffffffffffffffffffffffffffffffffffff161415610d1b576040517f08c379a0000000000000000000000000000000000000000000000000000000008152600401610d1290613059565b60405180910390fd5b80915050919050565b60008073ffffffffffffffffffffffffffffffffffffffff168273ffffffffffffffffffffffffffffffffffffffff161415610d95576040517f08c379a0000000000000000000000000000000000000000000000000000000008152600401610d8c90613039565b60405180910390fd5b600360008373ffffffffffffffffffffffffffffffffffffffff1673ffffffffffffffffffffffffffffffffffffffff168152602001908152602001600020549050919050565b610de461175c565b73ffffffffffffffffffffffffffffffffffffffff16610e02610ef2565b73ffffffffffffffffffffffffffffffffffffffff1614610e58576040517f08c379a0000000000000000000000000000000000000000000000000000000008152600401610e4f906130b9565b60405180910390fd5b610e626000611bd1565b565b60098054610e71906133c7565b80601f0160208091040260200160405190810160405280929190818152602001828054610e9d906133c7565b8015610eea5780601f10610ebf57610100808354040283529160200191610eea565b820191906000526020600020905b815481529060010190602001808311610ecd57829003601f168201915b505050505081565b6000600660009054906101000a900473ffffffffffffffffffffffffffffffffffffffff16905090565b606060018054610f2b906133c7565b80601f0160208091040260200160405190810160405280929190818152602001828054610f57906133c7565b8015610fa45780601f10610f7957610100808354040283529160200191610fa4565b820191906000526020600020905b815481529060010190602001808311610f8757829003601f168201915b5050505050905090565b610fb661175c565b73ffffffffffffffffffffffffffffffffffffffff168273ffffffffffffffffffffffffffffffffffffffff161415611024576040517f08c379a000000000000000000000000000000000000000000000000000000000815260040161101b90612fb9565b60405180910390fd5b806005600061103161175c565b73ffffffffffffffffffffffffffffffffffffffff1673ffffffffffffffffffffffffffffffffffffffff16815260200190815260200160002060008473ffffffffffffffffffffffffffffffffffffffff1673ffffffffffffffffffffffffffffffffffffffff16815260200190815260200160002060006101000a81548160ff0219169083151502179055508173ffffffffffffffffffffffffffffffffffffffff166110de61175c565b73ffffffffffffffffffffffffffffffffffffffff167f17307eab39ab6107e8899845ad3d59bd9653f200f220920489ca2b5937696c31836040516111239190612edc565b60405180910390a35050565b61114061113a61175c565b83611889565b61117f576040517f08c379a000000000000000000000000000000000000000000000000000000000815260040161117690613119565b60405180910390fd5b61118b84848484611c97565b50505050565b600a5481565b60606111a282611764565b6111ab57600080fd5b60006008600084815260200190815260200160002080546111cb906133c7565b80601f01602080910402602001604051908101604052809291908181526020018280546111f7906133c7565b80156112445780601f1061121957610100808354040283529160200191611244565b820191906000526020600020905b81548152906001019060200180831161122757829003601f168201915b5050505050905080915050919050565b6000600b60009054906101000a900460ff16156112a6576040517f08c379a000000000000000000000000000000000000000000000000000000000815260040161129d90613139565b60405180910390fd5b6112ae610ef2565b73ffffffffffffffffffffffffffffffffffffffff163373ffffffffffffffffffffffffffffffffffffffff161461132657600a54341015611325576040517f08c379a000000000000000000000000000000000000000000000000000000000815260040161131c90612f79565b60405180910390fd5b5b60006113326007611bc3565b905061133e8482611cf3565b6113488184611ec1565b6113526007611eed565b7f176b02bb2d12439ff7a20b59f402cca16c76f50508b13ef3166a600eb719354a816040516113819190613159565b60405180910390a18091505092915050565b6000600560008473ffffffffffffffffffffffffffffffffffffffff1673ffffffffffffffffffffffffffffffffffffffff16815260200190815260200160002060008373ffffffffffffffffffffffffffffffffffffffff1673ffffffffffffffffffffffffffffffffffffffff16815260200190815260200160002060009054906101000a900460ff16905092915050565b61142f61175c565b73ffffffffffffffffffffffffffffffffffffffff1661144d610ef2565b73ffffffffffffffffffffffffffffffffffffffff16146114a3576040517f08c379a000000000000000000000000000000000000000000000000000000000815260040161149a906130b9565b60405180910390fd5b600073ffffffffffffffffffffffffffffffffffffffff168173ffffffffffffffffffffffffffffffffffffffff161415611513576040517f08c379a000000000000000000000000000000000000000000000000000000000815260040161150a90612f39565b60405180910390fd5b61151c81611bd1565b50565b61152761175c565b73ffffffffffffffffffffffffffffffffffffffff16611545610ef2565b73ffffffffffffffffffffffffffffffffffffffff161461159b576040517f08c379a0000000000000000000000000000000000000000000000000000000008152600401611592906130b9565b60405180910390fd5b8073ffffffffffffffffffffffffffffffffffffffff1663a9059cbb338373ffffffffffffffffffffffffffffffffffffffff166370a08231306040518263ffffffff1660e01b81526004016115f19190612e2a565b60206040518083038186803b15801561160957600080fd5b505afa15801561161d573d6000803e3d6000fd5b505050506040513d601f19601f82011682018060405250810190611641919061259a565b6040518363ffffffff1660e01b815260040161165e929190612e91565b602060405180830381600087803b15801561167857600080fd5b505af115801561168c573d6000803e3d6000fd5b505050506040513d601f19601f820116820180604052508101906116b091906124f6565b6116ef576040517f08c379a00000000000000000000000000000000000000000000000000000000081526004016116e690612fd9565b60405180910390fd5b50565b60007f01ffc9a7000000000000000000000000000000000000000000000000000000007bffffffffffffffffffffffffffffffffffffffffffffffffffffffff1916827bffffffffffffffffffffffffffffffffffffffffffffffffffffffff1916149050919050565b600033905090565b60008073ffffffffffffffffffffffffffffffffffffffff166002600084815260200190815260200160002060009054906101000a900473ffffffffffffffffffffffffffffffffffffffff1673ffffffffffffffffffffffffffffffffffffffff1614159050919050565b816004600083815260200190815260200160002060006101000a81548173ffffffffffffffffffffffffffffffffffffffff021916908373ffffffffffffffffffffffffffffffffffffffff160217905550808273ffffffffffffffffffffffffffffffffffffffff1661184383610c72565b73ffffffffffffffffffffffffffffffffffffffff167f8c5be1e5ebec7d5bd14f71427d1e84f3dd0314c0f7b2291e5b200ac8c7c3b92560405160405180910390a45050565b600061189482611764565b6118d3576040517f08c379a00000000000000000000000000000000000000000000000000000000081526004016118ca90612ff9565b60405180910390fd5b60006118de83610c72565b90508073ffffffffffffffffffffffffffffffffffffffff168473ffffffffffffffffffffffffffffffffffffffff16148061194d57508373ffffffffffffffffffffffffffffffffffffffff16611935846107d5565b73ffffffffffffffffffffffffffffffffffffffff16145b8061195e575061195d8185611393565b5b91505092915050565b8273ffffffffffffffffffffffffffffffffffffffff1661198782610c72565b73ffffffffffffffffffffffffffffffffffffffff16146119dd576040517f08c379a00000000000000000000000000000000000000000000000000000000081526004016119d4906130d9565b60405180910390fd5b600073ffffffffffffffffffffffffffffffffffffffff168273ffffffffffffffffffffffffffffffffffffffff161415611a4d576040517f08c379a0000000000000000000000000000000000000000000000000000000008152600401611a4490612f99565b60405180910390fd5b611a58838383611f03565b611a636000826117d0565b6001600360008573ffffffffffffffffffffffffffffffffffffffff1673ffffffffffffffffffffffffffffffffffffffff1681526020019081526020016000206000828254611ab391906132dd565b925050819055506001600360008473ffffffffffffffffffffffffffffffffffffffff1673ffffffffffffffffffffffffffffffffffffffff1681526020019081526020016000206000828254611b0a9190613287565b92505081905550816002600083815260200190815260200160002060006101000a81548173ffffffffffffffffffffffffffffffffffffffff021916908373ffffffffffffffffffffffffffffffffffffffff160217905550808273ffffffffffffffffffffffffffffffffffffffff168473ffffffffffffffffffffffffffffffffffffffff167fddf252ad1be2c89b69c2b068fc378daa952ba7f163c4a11628f55a4df523b3ef60405160405180910390a4505050565b600081600001549050919050565b6000600660009054906101000a900473ffffffffffffffffffffffffffffffffffffffff16905081600660006101000a81548173ffffffffffffffffffffffffffffffffffffffff021916908373ffffffffffffffffffffffffffffffffffffffff1602179055508173ffffffffffffffffffffffffffffffffffffffff168173ffffffffffffffffffffffffffffffffffffffff167f8be0079c531659141344cd1fd0a4f28419497f9722a3daafe3b4186f6b6457e060405160405180910390a35050565b611ca2848484611967565b611cae84848484611f08565b611ced576040517f08c379a0000000000000000000000000000000000000000000000000000000008152600401611ce490612f19565b60405180910390fd5b50505050565b600073ffffffffffffffffffffffffffffffffffffffff168273ffffffffffffffffffffffffffffffffffffffff161415611d63576040517f08c379a0000000000000000000000000000000000000000000000000000000008152600401611d5a90613079565b60405180910390fd5b611d6c81611764565b15611dac576040517f08c379a0000000000000000000000000000000000000000000000000000000008152600401611da390612f59565b60405180910390fd5b611db860008383611f03565b6001600360008473ffffffffffffffffffffffffffffffffffffffff1673ffffffffffffffffffffffffffffffffffffffff1681526020019081526020016000206000828254611e089190613287565b92505081905550816002600083815260200190815260200160002060006101000a81548173ffffffffffffffffffffffffffffffffffffffff021916908373ffffffffffffffffffffffffffffffffffffffff160217905550808273ffffffffffffffffffffffffffffffffffffffff16600073ffffffffffffffffffffffffffffffffffffffff167fddf252ad1be2c89b69c2b068fc378daa952ba7f163c4a11628f55a4df523b3ef60405160405180910390a45050565b80600860008481526020019081526020016000209080519060200190611ee89291906120cc565b505050565b6001816000016000828254019250508190555050565b505050565b6000611f298473ffffffffffffffffffffffffffffffffffffffff1661209f565b15612092578373ffffffffffffffffffffffffffffffffffffffff1663150b7a02611f5261175c565b8786866040518563ffffffff1660e01b8152600401611f749493929190612e45565b602060405180830381600087803b158015611f8e57600080fd5b505af1925050508015611fbf57506040513d601f19601f82011682018060405250810190611fbc9190612548565b60015b612042573d8060008114611fef576040519150601f19603f3d011682016040523d82523d6000602084013e611ff4565b606091505b5060008151141561203a576040517f08c379a000000000000000000000000000000000000000000000000000000000815260040161203190612f19565b60405180910390fd5b805181602001fd5b63150b7a0260e01b7bffffffffffffffffffffffffffffffffffffffffffffffffffffffff1916817bffffffffffffffffffffffffffffffffffffffffffffffffffffffff191614915050612097565b600190505b949350505050565b600080823b905060008111915050919050565b604051806040016040528060008152602001606081525090565b8280546120d8906133c7565b90600052602060002090601f0160209004810192826120fa5760008555612141565b82601f1061211357805160ff1916838001178555612141565b82800160010185558215612141579182015b82811115612140578251825591602001919060010190612125565b5b50905061214e9190612152565b5090565b5b8082111561216b576000816000905550600101612153565b5090565b600061218261217d846131a5565b613174565b90508281526020810184848401111561219a57600080fd5b6121a5848285613385565b509392505050565b60006121c06121bb846131d5565b613174565b9050828152602081018484840111156121d857600080fd5b6121e3848285613385565b509392505050565b6000813590506121fa816134e0565b92915050565b60008135905061220f816134f7565b92915050565b600081519050612224816134f7565b92915050565b6000813590506122398161350e565b92915050565b60008151905061224e8161350e565b92915050565b600082601f83011261226557600080fd5b813561227584826020860161216f565b91505092915050565b600082601f83011261228f57600080fd5b813561229f8482602086016121ad565b91505092915050565b6000813590506122b781613525565b92915050565b6000815190506122cc81613525565b92915050565b6000602082840312156122e457600080fd5b60006122f2848285016121eb565b91505092915050565b6000806040838503121561230e57600080fd5b600061231c858286016121eb565b925050602061232d858286016121eb565b9150509250929050565b60008060006060848603121561234c57600080fd5b600061235a868287016121eb565b935050602061236b868287016121eb565b925050604061237c868287016122a8565b9150509250925092565b6000806000806080858703121561239c57600080fd5b60006123aa878288016121eb565b94505060206123bb878288016121eb565b93505060406123cc878288016122a8565b925050606085013567ffffffffffffffff8111156123e957600080fd5b6123f587828801612254565b91505092959194509250565b6000806040838503121561241457600080fd5b6000612422858286016121eb565b925050602061243385828601612200565b9150509250929050565b6000806040838503121561245057600080fd5b600061245e858286016121eb565b925050602083013567ffffffffffffffff81111561247b57600080fd5b6124878582860161227e565b9150509250929050565b600080604083850312156124a457600080fd5b60006124b2858286016121eb565b92505060206124c3858286016122a8565b9150509250929050565b6000602082840312156124df57600080fd5b60006124ed84828501612200565b91505092915050565b60006020828403121561250857600080fd5b600061251684828501612215565b91505092915050565b60006020828403121561253157600080fd5b600061253f8482850161222a565b91505092915050565b60006020828403121561255a57600080fd5b60006125688482850161223f565b91505092915050565b60006020828403121561258357600080fd5b6000612591848285016122a8565b91505092915050565b6000602082840312156125ac57600080fd5b60006125ba848285016122bd565b91505092915050565b60006125cf8383612dcf565b905092915050565b6125e081613311565b82525050565b60006125f182613215565b6125fb8185613243565b93508360208202850161260d85613205565b8060005b85811015612649578484038952815161262a85826125c3565b945061263583613236565b925060208a01995050600181019050612611565b50829750879550505050505092915050565b61266481613323565b82525050565b600061267582613220565b61267f8185613254565b935061268f818560208601613394565b612698816134cf565b840191505092915050565b60006126ae8261322b565b6126b88185613265565b93506126c8818560208601613394565b6126d1816134cf565b840191505092915050565b60006126e78261322b565b6126f18185613276565b9350612701818560208601613394565b61270a816134cf565b840191505092915050565b6000612722603283613276565b91507f4552433732313a207472616e7366657220746f206e6f6e20455243373231526560008301527f63656976657220696d706c656d656e74657200000000000000000000000000006020830152604082019050919050565b6000612788602683613276565b91507f4f776e61626c653a206e6577206f776e657220697320746865207a65726f206160008301527f64647265737300000000000000000000000000000000000000000000000000006020830152604082019050919050565b60006127ee601c83613276565b91507f4552433732313a20746f6b656e20616c7265616479206d696e746564000000006000830152602082019050919050565b600061282e604b83613276565b91507f496e73756666696369656e742066756e647320666f72206d696e74696e672e2060008301527f4f6e6c792074686520636f6e7472616374206f776e65722063616e206d696e7460208301527f2066726565204e4654732e0000000000000000000000000000000000000000006040830152606082019050919050565b60006128ba602483613276565b91507f4552433732313a207472616e7366657220746f20746865207a65726f2061646460008301527f72657373000000000000000000000000000000000000000000000000000000006020830152604082019050919050565b6000612920601983613276565b91507f4552433732313a20617070726f766520746f2063616c6c6572000000000000006000830152602082019050919050565b6000612960601f83613276565b91507f4661696c656420746f20776974686472617720455243323020746f6b656e73006000830152602082019050919050565b60006129a0602c83613276565b91507f4552433732313a206f70657261746f7220717565727920666f72206e6f6e657860008301527f697374656e7420746f6b656e00000000000000000000000000000000000000006020830152604082019050919050565b6000612a06603883613276565b91507f4552433732313a20617070726f76652063616c6c6572206973206e6f74206f7760008301527f6e6572206e6f7220617070726f76656420666f7220616c6c00000000000000006020830152604082019050919050565b6000612a6c602a83613276565b91507f4552433732313a2062616c616e636520717565727920666f7220746865207a6560008301527f726f2061646472657373000000000000000000000000000000000000000000006020830152604082019050919050565b6000612ad2602983613276565b91507f4552433732313a206f776e657220717565727920666f72206e6f6e657869737460008301527f656e7420746f6b656e00000000000000000000000000000000000000000000006020830152604082019050919050565b6000612b38602083613276565b91507f4552433732313a206d696e7420746f20746865207a65726f20616464726573736000830152602082019050919050565b6000612b78602c83613276565b91507f4552433732313a20617070726f76656420717565727920666f72206e6f6e657860008301527f697374656e7420746f6b656e00000000000000000000000000000000000000006020830152604082019050919050565b6000612bde602083613276565b91507f4f776e61626c653a2063616c6c6572206973206e6f7420746865206f776e65726000830152602082019050919050565b6000612c1e602983613276565b91507f4552433732313a207472616e73666572206f6620746f6b656e2074686174206960008301527f73206e6f74206f776e00000000000000000000000000000000000000000000006020830152604082019050919050565b6000612c84602183613276565b91507f4552433732313a20617070726f76616c20746f2063757272656e74206f776e6560008301527f72000000000000000000000000000000000000000000000000000000000000006020830152604082019050919050565b6000612cea603183613276565b91507f4552433732313a207472616e736665722063616c6c6572206973206e6f74206f60008301527f776e6572206e6f7220617070726f7665640000000000000000000000000000006020830152604082019050919050565b6000612d50604483613276565b91507f4d696e74696e67206973207061757365642e2054686520636f6e74726163742060008301527f6f776e6572206e6565647320746f20756e70617573652074686520636f6e747260208301527f6163742e000000000000000000000000000000000000000000000000000000006040830152606082019050919050565b6000604083016000830151612de76000860182612e0c565b5060208301518482036020860152612dff82826126a3565b9150508091505092915050565b612e158161337b565b82525050565b612e248161337b565b82525050565b6000602082019050612e3f60008301846125d7565b92915050565b6000608082019050612e5a60008301876125d7565b612e6760208301866125d7565b612e746040830185612e1b565b8181036060830152612e86818461266a565b905095945050505050565b6000604082019050612ea660008301856125d7565b612eb36020830184612e1b565b9392505050565b60006020820190508181036000830152612ed481846125e6565b905092915050565b6000602082019050612ef1600083018461265b565b92915050565b60006020820190508181036000830152612f1181846126dc565b905092915050565b60006020820190508181036000830152612f3281612715565b9050919050565b60006020820190508181036000830152612f528161277b565b9050919050565b60006020820190508181036000830152612f72816127e1565b9050919050565b60006020820190508181036000830152612f9281612821565b9050919050565b60006020820190508181036000830152612fb2816128ad565b9050919050565b60006020820190508181036000830152612fd281612913565b9050919050565b60006020820190508181036000830152612ff281612953565b9050919050565b6000602082019050818103600083015261301281612993565b9050919050565b60006020820190508181036000830152613032816129f9565b9050919050565b6000602082019050818103600083015261305281612a5f565b9050919050565b6000602082019050818103600083015261307281612ac5565b9050919050565b6000602082019050818103600083015261309281612b2b565b9050919050565b600060208201905081810360008301526130b281612b6b565b9050919050565b600060208201905081810360008301526130d281612bd1565b9050919050565b600060208201905081810360008301526130f281612c11565b9050919050565b6000602082019050818103600083015261311281612c77565b9050919050565b6000602082019050818103600083015261313281612cdd565b9050919050565b6000602082019050818103600083015261315281612d43565b9050919050565b600060208201905061316e6000830184612e1b565b92915050565b6000604051905081810181811067ffffffffffffffff8211171561319b5761319a6134a0565b5b8060405250919050565b600067ffffffffffffffff8211156131c0576131bf6134a0565b5b601f19601f8301169050602081019050919050565b600067ffffffffffffffff8211156131f0576131ef6134a0565b5b601f19601f8301169050602081019050919050565b6000819050602082019050919050565b600081519050919050565b600081519050919050565b600081519050919050565b6000602082019050919050565b600082825260208201905092915050565b600082825260208201905092915050565b600082825260208201905092915050565b600082825260208201905092915050565b60006132928261337b565b915061329d8361337b565b9250827fffffffffffffffffffffffffffffffffffffffffffffffffffffffffffffffff038211156132d2576132d1613442565b5b828201905092915050565b60006132e88261337b565b91506132f38361337b565b92508282101561330657613305613442565b5b828203905092915050565b600061331c8261335b565b9050919050565b60008115159050919050565b60007fffffffff0000000000000000000000000000000000000000000000000000000082169050919050565b600073ffffffffffffffffffffffffffffffffffffffff82169050919050565b6000819050919050565b82818337600083830152505050565b60005b838110156133b2578082015181840152602081019050613397565b838111156133c1576000848401525b50505050565b600060028204905060018216806133df57607f821691505b602082108114156133f3576133f2613471565b5b50919050565b60006134048261337b565b91507fffffffffffffffffffffffffffffffffffffffffffffffffffffffffffffffff82141561343757613436613442565b5b600182019050919050565b7f4e487b7100000000000000000000000000000000000000000000000000000000600052601160045260246000fd5b7f4e487b7100000000000000000000000000000000000000000000000000000000600052602260045260246000fd5b7f4e487b7100000000000000000000000000000000000000000000000000000000600052604160045260246000fd5b6000601f19601f8301169050919050565b6134e981613311565b81146134f457600080fd5b50565b61350081613323565b811461350b57600080fd5b50565b6135178161332f565b811461352257600080fd5b50565b61352e8161337b565b811461353957600080fd5b5056fea2646970667358221220ea792e2a63299dfc2787e3fb27844eb51652d61577f4467a3c5b9d2ca7536a7364736f6c63430008000033436f6e73656e53797320426c6f636b636861696e20446576656c6f70657220426f6f7463616d702046696e616c2050726f6a65637420536d61727420436f6e7472616374",
  "immutableReferences": {},
  "source": "// SPDX-License-Identifier: MIT\n\npragma solidity 0.8.0; // using ^0.8.0 as getting an error but would like to fix the version to 0.8.0 specifically based on the sceurity recommendation in the course\n\nimport \"openzeppelin-solidity/contracts/token/ERC721/ERC721.sol\";\nimport \"openzeppelin-solidity/contracts/token/ERC20/IERC20.sol\";\nimport \"openzeppelin-solidity/contracts/utils/Counters.sol\";\nimport \"openzeppelin-solidity/contracts/access/Ownable.sol\"; // using this for now as simpler to implement than full RBAC\n\n\n/// @title A minter for Non-Fungible Tokens\n/// @author 0xCryptoStefan\n/// @notice This contract allows you to to mint a NFT associated with this project\n/// @dev This contract inherits from the OpenZeppelin standard templates specified above and add specific function overrides where required\ncontract Minter is ERC721, Ownable {\n    using Counters for Counters.Counter;\n    using Strings for uint256;\n    Counters.Counter _tokenIDs;\n    mapping(uint256 => string) _tokenURIs; // this line is to map the tokenIDs to the tokenURIs for the images / metadata associated with the NFT\n    string public contractName = \"ConsenSys Blockchain Developer Bootcamp Final Project Smart Contract\";\n    uint256 public mintCost = 0.01 ether; // when updating the mintCost with the function, this needs to be provided in wei\n    bool public paused = false;\n\n/* \n* Events\n*/\nevent Minted(uint256 newID);\n\n    // Do I need to declare this as public?  This is intended to simplify pulling all minted NFT IDs and associated URIs into the front-end dApp\n    struct allTokens {\n        uint256 id;\n        string uri;\n    }\n\n    // change the parameters in the constructor to something more interesting\n    // ERC721(name_of_token, ticker) referred to in the main contract template as _name and _symbol\n    constructor () ERC721(\"Dev Bootcamp Project\",\"DBP\") {}\n\n\n    /// @notice This function sets the URI for the NFT you wish to mint\n    /// @dev This function calls on the _tokenURIs mapping defined above and assigns the specific input _tokenURI to the mapped tokenID\n    /// @param tokenID The ID of the token with which to associate the input URI _tokenURI\n    /// @param _tokenURI The input URI to be associated with the tokenID\n    function _setTokenURI(uint256 tokenID, string memory _tokenURI) internal { // only to be used within the contract so setting scope to internal and prefixing with an underscore _setTokenURI()\n        _tokenURIs[tokenID] = _tokenURI; // call the mapping _tokenURIs and set the _tokenURI for tokenID\n    }\n\n\n    /// @notice This function gets all of the minted tokens from the smart contract\n    /// @dev This function is used to simplify displaying all of the minted NFTs from the contract in the front-end\n    /// @return allTokens[] which is an array of all of the tokens minted to-date that can be stepped through in the front-end to display each of the NFTs\n    function getAllTokens() public view returns(allTokens[] memory) {\n        uint256 latestMintID = _tokenIDs.current(); // Get the ID of the most recently minted token\n        allTokens[] memory resultArray = new allTokens[](latestMintID); // \n        for(uint256 i=0; i < latestMintID; i++) {\n            if(_exists(i)) {\n                string memory uri = tokenURI(i); // get the URI associated with the tokenID with number counter\n                resultArray[i] = allTokens(i, uri); // add the result to the results array -> resultArray\n            }            \n        }\n        return resultArray;\n    }\n\n\n    /// @notice This function mints your NFT to your address\n    /// @dev This function mints the NFT with the URI stored in the uri input variable\n    /// @param recipient The ID of the token with which to associate the input URI _tokenURI\n    /// @param uri The input URI to be associated with the tokenID\n    /// @return newID The ID of the NFT that has just been minted\n    function mint(address recipient, string memory uri) public payable returns(uint256) { // review whether this should be a public function or not.  Currently want this public to allow anyone to mint, but will need to review if I add a function to allow free mints for contract Owner (onlyOwner modifier or update to use full RBAC) versus other people\n        require(!paused, \"Minting is paused. The contract owner needs to unpause the contract.\");\n        if (msg.sender != owner()) {\n            require(msg.value >= mintCost, \"Insufficient funds for minting. Only the contract owner can mint free NFTs.\");\n        }\n        \n        uint256 newID = _tokenIDs.current(); // Get the current state of _tokenIDs to ensure minting the next available in the series\n        _mint(recipient, newID); // calling the _mint() function from the ERC721 standard\n        _setTokenURI(newID, uri); // this function calls the internal function to set the URI based on the input to THIS function (uri) and the NFT to be minted (newID)\n        // check this next line is secure to increment here rather than earlier based on the points in the course around security\n        _tokenIDs.increment(); // increase the value of tokenIDs at the end of the minting function so that the next mint uses the correct value when _tokenIDs.current() is called\n        emit Minted(newID); // added an emit event to allow verification test - don't think this works!\n        return newID;\n    }\n\n\n    /// @notice This function is a read-only function for looking up the URI associated with a specific tokenID\n    /// @dev This function uses override to ensure no conflict with the underlying function tokenURI() from the ERC721 standard template from OpenZeppelin\n    /// @param tokenID The ID of the token to be looked up for its matching URI\n    /// @return _tokenURI The URI of the the token requested with ID matching tokenID\n    // This function tokenURI() is to allow other applications to be able to view the URI and associated metadata for the tokenID that is input.\n    // override is needed to ensure no conflict with the underlying tokenURI() from the ERC721 standard - can I adjust to getTokenURI() for improved readability or will that not adhere to the standard for 721 and not work on OpenSea etc?\n    function tokenURI(uint256 tokenID) public view virtual override returns(string memory) {\n        require(_exists(tokenID)); // ensure there is a break if someone calls this function for a tokenID that does not exist in the mapping\n        string memory _tokenURI = _tokenURIs[tokenID]; // get the value of the URI for tokenID from the _tokenURIs mapping\n        return _tokenURI;\n    }\n\n\n    /// @notice This function is to allow the contract owner to withdraw the funds received from the contract\n    /// @dev No special notes. Uses the onlyOwner modifier from the OpenZeppelin templates\n    // No fees implemented yet so this function will not have anything to withdraw from the contract\n    function withdraw() public payable onlyOwner {\n    require(payable(msg.sender).send(address(this).balance));\n    }\n\n\n    /// @notice This function pauses and unpauses the minting function\n    /// @dev This function takes a single boolean variable to update the paused/unpaused state of minting\n    /// @param _state The boolean value (true or false) to set the status of the minting function\n    function pause(bool _state) public onlyOwner {\n        paused = _state;\n    }\n\n\n    /// @notice This function updates the mint cost for the NFTs\n    /// @dev This function updates the mint cost for the NFTs\n    /// @param _newMintCost The new mint cost in wei / Ether\n    function setCost(uint256 _newMintCost) public onlyOwner {\n        mintCost = _newMintCost;\n    }\n\n    /// @notice This function allows the Owner to withdraw ERC20 tokens from the contract address\n    /// @dev This function allows the Owner to withdraw ERC20 tokens from the contract address\n    /// @param _tokenContractAddress The contract address of the ERC20 token to be withdrawn from the smart contract\n    function withdrawERC20(address _tokenContractAddress) public onlyOwner {\n        require(IERC20(_tokenContractAddress).transfer(msg.sender, IERC20(_tokenContractAddress).balanceOf(address(this))), \"Failed to withdraw ERC20 tokens\");\n    }\n\n}",
  "sourcePath": "/home/sakura/dev/blockchain-developer-bootcamp-final-project/contracts/Minter.sol",
  "compiler": {
    "name": "solc",
    "version": "0.8.0+commit.c7dfd78e.Emscripten.clang"
  },
  "schemaVersion": "3.4.3",
  "updatedAt": "2022-01-29T00:12:14.213Z",
  "devdoc": {
    "author": "0xCryptoStefan",
    "details": "This contract inherits from the OpenZeppelin standard templates specified above and add specific function overrides where required",
    "kind": "dev",
    "methods": {
      "approve(address,uint256)": {
        "details": "See {IERC721-approve}."
      },
      "balanceOf(address)": {
        "details": "See {IERC721-balanceOf}."
      },
      "getAllTokens()": {
        "details": "This function is used to simplify displaying all of the minted NFTs from the contract in the front-end",
        "returns": {
          "_0": "allTokens[] which is an array of all of the tokens minted to-date that can be stepped through in the front-end to display each of the NFTs"
        }
      },
      "getApproved(uint256)": {
        "details": "See {IERC721-getApproved}."
      },
      "isApprovedForAll(address,address)": {
        "details": "See {IERC721-isApprovedForAll}."
      },
      "mint(address,string)": {
        "details": "This function mints the NFT with the URI stored in the uri input variable",
        "params": {
          "recipient": "The ID of the token with which to associate the input URI _tokenURI",
          "uri": "The input URI to be associated with the tokenID"
        },
        "returns": {
          "_0": "newID The ID of the NFT that has just been minted"
        }
      },
      "name()": {
        "details": "See {IERC721Metadata-name}."
      },
      "owner()": {
        "details": "Returns the address of the current owner."
      },
      "ownerOf(uint256)": {
        "details": "See {IERC721-ownerOf}."
      },
      "pause(bool)": {
        "details": "This function takes a single boolean variable to update the paused/unpaused state of minting",
        "params": {
          "_state": "The boolean value (true or false) to set the status of the minting function"
        }
      },
      "renounceOwnership()": {
        "details": "Leaves the contract without owner. It will not be possible to call `onlyOwner` functions anymore. Can only be called by the current owner. NOTE: Renouncing ownership will leave the contract without an owner, thereby removing any functionality that is only available to the owner."
      },
      "safeTransferFrom(address,address,uint256)": {
        "details": "See {IERC721-safeTransferFrom}."
      },
      "safeTransferFrom(address,address,uint256,bytes)": {
        "details": "See {IERC721-safeTransferFrom}."
      },
      "setApprovalForAll(address,bool)": {
        "details": "See {IERC721-setApprovalForAll}."
      },
      "setCost(uint256)": {
        "details": "This function updates the mint cost for the NFTs",
        "params": {
          "_newMintCost": "The new mint cost in wei / Ether"
        }
      },
      "supportsInterface(bytes4)": {
        "details": "See {IERC165-supportsInterface}."
      },
      "symbol()": {
        "details": "See {IERC721Metadata-symbol}."
      },
      "tokenURI(uint256)": {
        "details": "This function uses override to ensure no conflict with the underlying function tokenURI() from the ERC721 standard template from OpenZeppelin",
        "params": {
          "tokenID": "The ID of the token to be looked up for its matching URI"
        },
        "returns": {
          "_0": "_tokenURI The URI of the the token requested with ID matching tokenID"
        }
      },
      "transferFrom(address,address,uint256)": {
        "details": "See {IERC721-transferFrom}."
      },
      "transferOwnership(address)": {
        "details": "Transfers ownership of the contract to a new account (`newOwner`). Can only be called by the current owner."
      },
      "withdraw()": {
        "details": "No special notes. Uses the onlyOwner modifier from the OpenZeppelin templates"
      },
      "withdrawERC20(address)": {
        "details": "This function allows the Owner to withdraw ERC20 tokens from the contract address",
        "params": {
          "_tokenContractAddress": "The contract address of the ERC20 token to be withdrawn from the smart contract"
        }
      }
    },
    "title": "A minter for Non-Fungible Tokens",
    "version": 1
  },
  "userdoc": {
    "kind": "user",
    "methods": {
      "getAllTokens()": {
        "notice": "This function gets all of the minted tokens from the smart contract"
      },
      "mint(address,string)": {
        "notice": "This function mints your NFT to your address"
      },
      "pause(bool)": {
        "notice": "This function pauses and unpauses the minting function"
      },
      "setCost(uint256)": {
        "notice": "This function updates the mint cost for the NFTs"
      },
      "tokenURI(uint256)": {
        "notice": "This function is a read-only function for looking up the URI associated with a specific tokenID"
      },
      "withdraw()": {
        "notice": "This function is to allow the contract owner to withdraw the funds received from the contract"
      },
      "withdrawERC20(address)": {
        "notice": "This function allows the Owner to withdraw ERC20 tokens from the contract address"
      }
    },
    "notice": "This contract allows you to to mint a NFT associated with this project",
    "version": 1
  }
}