{
  "contractName": "Minter",
  "abi": [
    {
      "inputs": [],
      "stateMutability": "nonpayable",
      "type": "constructor"
    },
    {
      "anonymous": false,
      "inputs": [
        {
          "indexed": true,
          "internalType": "address",
          "name": "owner",
          "type": "address"
        },
        {
          "indexed": true,
          "internalType": "address",
          "name": "approved",
          "type": "address"
        },
        {
          "indexed": true,
          "internalType": "uint256",
          "name": "tokenId",
          "type": "uint256"
        }
      ],
      "name": "Approval",
      "type": "event"
    },
    {
      "anonymous": false,
      "inputs": [
        {
          "indexed": true,
          "internalType": "address",
          "name": "owner",
          "type": "address"
        },
        {
          "indexed": true,
          "internalType": "address",
          "name": "operator",
          "type": "address"
        },
        {
          "indexed": false,
          "internalType": "bool",
          "name": "approved",
          "type": "bool"
        }
      ],
      "name": "ApprovalForAll",
      "type": "event"
    },
    {
      "anonymous": false,
      "inputs": [
        {
          "indexed": false,
          "internalType": "uint256",
          "name": "newID",
          "type": "uint256"
        }
      ],
      "name": "Minted",
      "type": "event"
    },
    {
      "anonymous": false,
      "inputs": [
        {
          "indexed": true,
          "internalType": "address",
          "name": "previousOwner",
          "type": "address"
        },
        {
          "indexed": true,
          "internalType": "address",
          "name": "newOwner",
          "type": "address"
        }
      ],
      "name": "OwnershipTransferred",
      "type": "event"
    },
    {
      "anonymous": false,
      "inputs": [
        {
          "indexed": true,
          "internalType": "address",
          "name": "from",
          "type": "address"
        },
        {
          "indexed": true,
          "internalType": "address",
          "name": "to",
          "type": "address"
        },
        {
          "indexed": true,
          "internalType": "uint256",
          "name": "tokenId",
          "type": "uint256"
        }
      ],
      "name": "Transfer",
      "type": "event"
    },
    {
      "inputs": [
        {
          "internalType": "address",
          "name": "to",
          "type": "address"
        },
        {
          "internalType": "uint256",
          "name": "tokenId",
          "type": "uint256"
        }
      ],
      "name": "approve",
      "outputs": [],
      "stateMutability": "nonpayable",
      "type": "function"
    },
    {
      "inputs": [
        {
          "internalType": "address",
          "name": "owner",
          "type": "address"
        }
      ],
      "name": "balanceOf",
      "outputs": [
        {
          "internalType": "uint256",
          "name": "",
          "type": "uint256"
        }
      ],
      "stateMutability": "view",
      "type": "function",
      "constant": true
    },
    {
      "inputs": [],
      "name": "contractName",
      "outputs": [
        {
          "internalType": "string",
          "name": "",
          "type": "string"
        }
      ],
      "stateMutability": "view",
      "type": "function",
      "constant": true
    },
    {
      "inputs": [
        {
          "internalType": "uint256",
          "name": "tokenId",
          "type": "uint256"
        }
      ],
      "name": "getApproved",
      "outputs": [
        {
          "internalType": "address",
          "name": "",
          "type": "address"
        }
      ],
      "stateMutability": "view",
      "type": "function",
      "constant": true
    },
    {
      "inputs": [
        {
          "internalType": "address",
          "name": "owner",
          "type": "address"
        },
        {
          "internalType": "address",
          "name": "operator",
          "type": "address"
        }
      ],
      "name": "isApprovedForAll",
      "outputs": [
        {
          "internalType": "bool",
          "name": "",
          "type": "bool"
        }
      ],
      "stateMutability": "view",
      "type": "function",
      "constant": true
    },
    {
      "inputs": [],
      "name": "name",
      "outputs": [
        {
          "internalType": "string",
          "name": "",
          "type": "string"
        }
      ],
      "stateMutability": "view",
      "type": "function",
      "constant": true
    },
    {
      "inputs": [],
      "name": "owner",
      "outputs": [
        {
          "internalType": "address",
          "name": "",
          "type": "address"
        }
      ],
      "stateMutability": "view",
      "type": "function",
      "constant": true
    },
    {
      "inputs": [
        {
          "internalType": "uint256",
          "name": "tokenId",
          "type": "uint256"
        }
      ],
      "name": "ownerOf",
      "outputs": [
        {
          "internalType": "address",
          "name": "",
          "type": "address"
        }
      ],
      "stateMutability": "view",
      "type": "function",
      "constant": true
    },
    {
      "inputs": [],
      "name": "renounceOwnership",
      "outputs": [],
      "stateMutability": "nonpayable",
      "type": "function"
    },
    {
      "inputs": [
        {
          "internalType": "address",
          "name": "from",
          "type": "address"
        },
        {
          "internalType": "address",
          "name": "to",
          "type": "address"
        },
        {
          "internalType": "uint256",
          "name": "tokenId",
          "type": "uint256"
        }
      ],
      "name": "safeTransferFrom",
      "outputs": [],
      "stateMutability": "nonpayable",
      "type": "function"
    },
    {
      "inputs": [
        {
          "internalType": "address",
          "name": "from",
          "type": "address"
        },
        {
          "internalType": "address",
          "name": "to",
          "type": "address"
        },
        {
          "internalType": "uint256",
          "name": "tokenId",
          "type": "uint256"
        },
        {
          "internalType": "bytes",
          "name": "_data",
          "type": "bytes"
        }
      ],
      "name": "safeTransferFrom",
      "outputs": [],
      "stateMutability": "nonpayable",
      "type": "function"
    },
    {
      "inputs": [
        {
          "internalType": "address",
          "name": "operator",
          "type": "address"
        },
        {
          "internalType": "bool",
          "name": "approved",
          "type": "bool"
        }
      ],
      "name": "setApprovalForAll",
      "outputs": [],
      "stateMutability": "nonpayable",
      "type": "function"
    },
    {
      "inputs": [
        {
          "internalType": "bytes4",
          "name": "interfaceId",
          "type": "bytes4"
        }
      ],
      "name": "supportsInterface",
      "outputs": [
        {
          "internalType": "bool",
          "name": "",
          "type": "bool"
        }
      ],
      "stateMutability": "view",
      "type": "function",
      "constant": true
    },
    {
      "inputs": [],
      "name": "symbol",
      "outputs": [
        {
          "internalType": "string",
          "name": "",
          "type": "string"
        }
      ],
      "stateMutability": "view",
      "type": "function",
      "constant": true
    },
    {
      "inputs": [
        {
          "internalType": "address",
          "name": "from",
          "type": "address"
        },
        {
          "internalType": "address",
          "name": "to",
          "type": "address"
        },
        {
          "internalType": "uint256",
          "name": "tokenId",
          "type": "uint256"
        }
      ],
      "name": "transferFrom",
      "outputs": [],
      "stateMutability": "nonpayable",
      "type": "function"
    },
    {
      "inputs": [
        {
          "internalType": "address",
          "name": "newOwner",
          "type": "address"
        }
      ],
      "name": "transferOwnership",
      "outputs": [],
      "stateMutability": "nonpayable",
      "type": "function"
    },
    {
      "inputs": [],
      "name": "getAllTokens",
      "outputs": [
        {
          "components": [
            {
              "internalType": "uint256",
              "name": "id",
              "type": "uint256"
            },
            {
              "internalType": "string",
              "name": "uri",
              "type": "string"
            }
          ],
          "internalType": "struct Minter.allTokens[]",
          "name": "",
          "type": "tuple[]"
        }
      ],
      "stateMutability": "view",
      "type": "function",
      "constant": true
    },
    {
      "inputs": [
        {
          "internalType": "address",
          "name": "recipient",
          "type": "address"
        },
        {
          "internalType": "string",
          "name": "uri",
          "type": "string"
        }
      ],
      "name": "mint",
      "outputs": [
        {
          "internalType": "uint256",
          "name": "",
          "type": "uint256"
        }
      ],
      "stateMutability": "nonpayable",
      "type": "function"
    },
    {
      "inputs": [
        {
          "internalType": "uint256",
          "name": "tokenID",
          "type": "uint256"
        }
      ],
      "name": "tokenURI",
      "outputs": [
        {
          "internalType": "string",
          "name": "",
          "type": "string"
        }
      ],
      "stateMutability": "view",
      "type": "function",
      "constant": true
    }
  ],
  "bytecode": "0x60806040526040518060400160405280600e81526020017f536d61727420436f6e74726163740000000000000000000000000000000000008152506009908051906020019062000051929190620001f4565b503480156200005f57600080fd5b506040518060400160405280601481526020017f44657620426f6f7463616d702050726f6a6563740000000000000000000000008152506040518060400160405280600381526020017f44425000000000000000000000000000000000000000000000000000000000008152508160009080519060200190620000e4929190620001f4565b508060019080519060200190620000fd929190620001f4565b50505062000120620001146200012660201b60201c565b6200012e60201b60201c565b62000309565b600033905090565b6000600660009054906101000a900473ffffffffffffffffffffffffffffffffffffffff16905081600660006101000a81548173ffffffffffffffffffffffffffffffffffffffff021916908373ffffffffffffffffffffffffffffffffffffffff1602179055508173ffffffffffffffffffffffffffffffffffffffff168173ffffffffffffffffffffffffffffffffffffffff167f8be0079c531659141344cd1fd0a4f28419497f9722a3daafe3b4186f6b6457e060405160405180910390a35050565b8280546200020290620002d3565b90600052602060002090601f01602090048101928262000226576000855562000272565b82601f106200024157805160ff191683800117855562000272565b8280016001018555821562000272579182015b828111156200027157825182559160200191906001019062000254565b5b50905062000281919062000285565b5090565b5b80821115620002a057600081600090555060010162000286565b5090565b7f4e487b7100000000000000000000000000000000000000000000000000000000600052602260045260246000fd5b60006002820490506001821680620002ec57607f821691505b60208210811415620003035762000302620002a4565b5b50919050565b612d6c80620003196000396000f3fe608060405234801561001057600080fd5b50600436106101215760003560e01c8063715018a6116100ad578063b88d4fde11610071578063b88d4fde146102f6578063c87b56dd14610312578063d0def52114610342578063e985e9c514610372578063f2fde38b146103a257610121565b8063715018a61461027657806375d0c0dc146102805780638da5cb5b1461029e57806395d89b41146102bc578063a22cb465146102da57610121565b806323b872dd116100f457806323b872dd146101c05780632a5c792a146101dc57806342842e0e146101fa5780636352211e1461021657806370a082311461024657610121565b806301ffc9a71461012657806306fdde0314610156578063081812fc14610174578063095ea7b3146101a4575b600080fd5b610140600480360381019061013b9190611afd565b6103be565b60405161014d9190611b45565b60405180910390f35b61015e6104a0565b60405161016b9190611bf9565b60405180910390f35b61018e60048036038101906101899190611c51565b610532565b60405161019b9190611cbf565b60405180910390f35b6101be60048036038101906101b99190611d06565b6105b7565b005b6101da60048036038101906101d59190611d46565b6106cf565b005b6101e461072f565b6040516101f19190611ef1565b60405180910390f35b610214600480360381019061020f9190611d46565b61081e565b005b610230600480360381019061022b9190611c51565b61083e565b60405161023d9190611cbf565b60405180910390f35b610260600480360381019061025b9190611f13565b6108f0565b60405161026d9190611f4f565b60405180910390f35b61027e6109a8565b005b610288610a30565b6040516102959190611bf9565b60405180910390f35b6102a6610abe565b6040516102b39190611cbf565b60405180910390f35b6102c4610ae8565b6040516102d19190611bf9565b60405180910390f35b6102f460048036038101906102ef9190611f96565b610b7a565b005b610310600480360381019061030b919061210b565b610cfb565b005b61032c60048036038101906103279190611c51565b610d5d565b6040516103399190611bf9565b60405180910390f35b61035c6004803603810190610357919061222f565b610e1a565b6040516103699190611f4f565b60405180910390f35b61038c6004803603810190610387919061228b565b610e88565b6040516103999190611b45565b60405180910390f35b6103bc60048036038101906103b79190611f13565b610f1c565b005b60007f80ac58cd000000000000000000000000000000000000000000000000000000007bffffffffffffffffffffffffffffffffffffffffffffffffffffffff1916827bffffffffffffffffffffffffffffffffffffffffffffffffffffffff1916148061048957507f5b5e139f000000000000000000000000000000000000000000000000000000007bffffffffffffffffffffffffffffffffffffffffffffffffffffffff1916827bffffffffffffffffffffffffffffffffffffffffffffffffffffffff1916145b80610499575061049882611014565b5b9050919050565b6060600080546104af906122fa565b80601f01602080910402602001604051908101604052809291908181526020018280546104db906122fa565b80156105285780601f106104fd57610100808354040283529160200191610528565b820191906000526020600020905b81548152906001019060200180831161050b57829003601f168201915b5050505050905090565b600061053d8261107e565b61057c576040517f08c379a00000000000000000000000000000000000000000000000000000000081526004016105739061239e565b60405180910390fd5b6004600083815260200190815260200160002060009054906101000a900473ffffffffffffffffffffffffffffffffffffffff169050919050565b60006105c28261083e565b90508073ffffffffffffffffffffffffffffffffffffffff168373ffffffffffffffffffffffffffffffffffffffff161415610633576040517f08c379a000000000000000000000000000000000000000000000000000000000815260040161062a90612430565b60405180910390fd5b8073ffffffffffffffffffffffffffffffffffffffff166106526110ea565b73ffffffffffffffffffffffffffffffffffffffff16148061068157506106808161067b6110ea565b610e88565b5b6106c0576040517f08c379a00000000000000000000000000000000000000000000000000000000081526004016106b7906124c2565b60405180910390fd5b6106ca83836110f2565b505050565b6106e06106da6110ea565b826111ab565b61071f576040517f08c379a000000000000000000000000000000000000000000000000000000000815260040161071690612554565b60405180910390fd5b61072a838383611289565b505050565b6060600061073d60076114e5565b90506000808267ffffffffffffffff81111561075c5761075b611fe0565b5b60405190808252806020026020018201604052801561079557816020015b6107826119d4565b81526020019060019003908161077a5790505b50905060005b83811015610814576107ac8361107e565b156107f35760006107bc84610d5d565b90506040518060400160405280858152602001828152508385815181106107e6576107e5612574565b5b6020026020010181905250505b82806107fe906125d2565b935050808061080c906125d2565b91505061079b565b5080935050505090565b61083983838360405180602001604052806000815250610cfb565b505050565b6000806002600084815260200190815260200160002060009054906101000a900473ffffffffffffffffffffffffffffffffffffffff169050600073ffffffffffffffffffffffffffffffffffffffff168173ffffffffffffffffffffffffffffffffffffffff1614156108e7576040517f08c379a00000000000000000000000000000000000000000000000000000000081526004016108de9061268d565b60405180910390fd5b80915050919050565b60008073ffffffffffffffffffffffffffffffffffffffff168273ffffffffffffffffffffffffffffffffffffffff161415610961576040517f08c379a00000000000000000000000000000000000000000000000000000000081526004016109589061271f565b60405180910390fd5b600360008373ffffffffffffffffffffffffffffffffffffffff1673ffffffffffffffffffffffffffffffffffffffff168152602001908152602001600020549050919050565b6109b06110ea565b73ffffffffffffffffffffffffffffffffffffffff166109ce610abe565b73ffffffffffffffffffffffffffffffffffffffff1614610a24576040517f08c379a0000000000000000000000000000000000000000000000000000000008152600401610a1b9061278b565b60405180910390fd5b610a2e60006114f3565b565b60098054610a3d906122fa565b80601f0160208091040260200160405190810160405280929190818152602001828054610a69906122fa565b8015610ab65780601f10610a8b57610100808354040283529160200191610ab6565b820191906000526020600020905b815481529060010190602001808311610a9957829003601f168201915b505050505081565b6000600660009054906101000a900473ffffffffffffffffffffffffffffffffffffffff16905090565b606060018054610af7906122fa565b80601f0160208091040260200160405190810160405280929190818152602001828054610b23906122fa565b8015610b705780601f10610b4557610100808354040283529160200191610b70565b820191906000526020600020905b815481529060010190602001808311610b5357829003601f168201915b5050505050905090565b610b826110ea565b73ffffffffffffffffffffffffffffffffffffffff168273ffffffffffffffffffffffffffffffffffffffff161415610bf0576040517f08c379a0000000000000000000000000000000000000000000000000000000008152600401610be7906127f7565b60405180910390fd5b8060056000610bfd6110ea565b73ffffffffffffffffffffffffffffffffffffffff1673ffffffffffffffffffffffffffffffffffffffff16815260200190815260200160002060008473ffffffffffffffffffffffffffffffffffffffff1673ffffffffffffffffffffffffffffffffffffffff16815260200190815260200160002060006101000a81548160ff0219169083151502179055508173ffffffffffffffffffffffffffffffffffffffff16610caa6110ea565b73ffffffffffffffffffffffffffffffffffffffff167f17307eab39ab6107e8899845ad3d59bd9653f200f220920489ca2b5937696c3183604051610cef9190611b45565b60405180910390a35050565b610d0c610d066110ea565b836111ab565b610d4b576040517f08c379a0000000000000000000000000000000000000000000000000000000008152600401610d4290612554565b60405180910390fd5b610d57848484846115b9565b50505050565b6060610d688261107e565b610d7157600080fd5b6000600860008481526020019081526020016000208054610d91906122fa565b80601f0160208091040260200160405190810160405280929190818152602001828054610dbd906122fa565b8015610e0a5780601f10610ddf57610100808354040283529160200191610e0a565b820191906000526020600020905b815481529060010190602001808311610ded57829003601f168201915b5050505050905080915050919050565b600080610e2760076114e5565b9050610e338482611615565b610e3d81846117e3565b610e47600761180f565b7f176b02bb2d12439ff7a20b59f402cca16c76f50508b13ef3166a600eb719354a81604051610e769190611f4f565b60405180910390a18091505092915050565b6000600560008473ffffffffffffffffffffffffffffffffffffffff1673ffffffffffffffffffffffffffffffffffffffff16815260200190815260200160002060008373ffffffffffffffffffffffffffffffffffffffff1673ffffffffffffffffffffffffffffffffffffffff16815260200190815260200160002060009054906101000a900460ff16905092915050565b610f246110ea565b73ffffffffffffffffffffffffffffffffffffffff16610f42610abe565b73ffffffffffffffffffffffffffffffffffffffff1614610f98576040517f08c379a0000000000000000000000000000000000000000000000000000000008152600401610f8f9061278b565b60405180910390fd5b600073ffffffffffffffffffffffffffffffffffffffff168173ffffffffffffffffffffffffffffffffffffffff161415611008576040517f08c379a0000000000000000000000000000000000000000000000000000000008152600401610fff90612889565b60405180910390fd5b611011816114f3565b50565b60007f01ffc9a7000000000000000000000000000000000000000000000000000000007bffffffffffffffffffffffffffffffffffffffffffffffffffffffff1916827bffffffffffffffffffffffffffffffffffffffffffffffffffffffff1916149050919050565b60008073ffffffffffffffffffffffffffffffffffffffff166002600084815260200190815260200160002060009054906101000a900473ffffffffffffffffffffffffffffffffffffffff1673ffffffffffffffffffffffffffffffffffffffff1614159050919050565b600033905090565b816004600083815260200190815260200160002060006101000a81548173ffffffffffffffffffffffffffffffffffffffff021916908373ffffffffffffffffffffffffffffffffffffffff160217905550808273ffffffffffffffffffffffffffffffffffffffff166111658361083e565b73ffffffffffffffffffffffffffffffffffffffff167f8c5be1e5ebec7d5bd14f71427d1e84f3dd0314c0f7b2291e5b200ac8c7c3b92560405160405180910390a45050565b60006111b68261107e565b6111f5576040517f08c379a00000000000000000000000000000000000000000000000000000000081526004016111ec9061291b565b60405180910390fd5b60006112008361083e565b90508073ffffffffffffffffffffffffffffffffffffffff168473ffffffffffffffffffffffffffffffffffffffff16148061126f57508373ffffffffffffffffffffffffffffffffffffffff1661125784610532565b73ffffffffffffffffffffffffffffffffffffffff16145b80611280575061127f8185610e88565b5b91505092915050565b8273ffffffffffffffffffffffffffffffffffffffff166112a98261083e565b73ffffffffffffffffffffffffffffffffffffffff16146112ff576040517f08c379a00000000000000000000000000000000000000000000000000000000081526004016112f6906129ad565b60405180910390fd5b600073ffffffffffffffffffffffffffffffffffffffff168273ffffffffffffffffffffffffffffffffffffffff16141561136f576040517f08c379a000000000000000000000000000000000000000000000000000000000815260040161136690612a3f565b60405180910390fd5b61137a838383611825565b6113856000826110f2565b6001600360008573ffffffffffffffffffffffffffffffffffffffff1673ffffffffffffffffffffffffffffffffffffffff16815260200190815260200160002060008282546113d59190612a5f565b925050819055506001600360008473ffffffffffffffffffffffffffffffffffffffff1673ffffffffffffffffffffffffffffffffffffffff168152602001908152602001600020600082825461142c9190612a93565b92505081905550816002600083815260200190815260200160002060006101000a81548173ffffffffffffffffffffffffffffffffffffffff021916908373ffffffffffffffffffffffffffffffffffffffff160217905550808273ffffffffffffffffffffffffffffffffffffffff168473ffffffffffffffffffffffffffffffffffffffff167fddf252ad1be2c89b69c2b068fc378daa952ba7f163c4a11628f55a4df523b3ef60405160405180910390a4505050565b600081600001549050919050565b6000600660009054906101000a900473ffffffffffffffffffffffffffffffffffffffff16905081600660006101000a81548173ffffffffffffffffffffffffffffffffffffffff021916908373ffffffffffffffffffffffffffffffffffffffff1602179055508173ffffffffffffffffffffffffffffffffffffffff168173ffffffffffffffffffffffffffffffffffffffff167f8be0079c531659141344cd1fd0a4f28419497f9722a3daafe3b4186f6b6457e060405160405180910390a35050565b6115c4848484611289565b6115d08484848461182a565b61160f576040517f08c379a000000000000000000000000000000000000000000000000000000000815260040161160690612b5b565b60405180910390fd5b50505050565b600073ffffffffffffffffffffffffffffffffffffffff168273ffffffffffffffffffffffffffffffffffffffff161415611685576040517f08c379a000000000000000000000000000000000000000000000000000000000815260040161167c90612bc7565b60405180910390fd5b61168e8161107e565b156116ce576040517f08c379a00000000000000000000000000000000000000000000000000000000081526004016116c590612c33565b60405180910390fd5b6116da60008383611825565b6001600360008473ffffffffffffffffffffffffffffffffffffffff1673ffffffffffffffffffffffffffffffffffffffff168152602001908152602001600020600082825461172a9190612a93565b92505081905550816002600083815260200190815260200160002060006101000a81548173ffffffffffffffffffffffffffffffffffffffff021916908373ffffffffffffffffffffffffffffffffffffffff160217905550808273ffffffffffffffffffffffffffffffffffffffff16600073ffffffffffffffffffffffffffffffffffffffff167fddf252ad1be2c89b69c2b068fc378daa952ba7f163c4a11628f55a4df523b3ef60405160405180910390a45050565b8060086000848152602001908152602001600020908051906020019061180a9291906119ee565b505050565b6001816000016000828254019250508190555050565b505050565b600061184b8473ffffffffffffffffffffffffffffffffffffffff166119c1565b156119b4578373ffffffffffffffffffffffffffffffffffffffff1663150b7a026118746110ea565b8786866040518563ffffffff1660e01b81526004016118969493929190612ca8565b602060405180830381600087803b1580156118b057600080fd5b505af19250505080156118e157506040513d601f19601f820116820180604052508101906118de9190612d09565b60015b611964573d8060008114611911576040519150601f19603f3d011682016040523d82523d6000602084013e611916565b606091505b5060008151141561195c576040517f08c379a000000000000000000000000000000000000000000000000000000000815260040161195390612b5b565b60405180910390fd5b805181602001fd5b63150b7a0260e01b7bffffffffffffffffffffffffffffffffffffffffffffffffffffffff1916817bffffffffffffffffffffffffffffffffffffffffffffffffffffffff1916149150506119b9565b600190505b949350505050565b600080823b905060008111915050919050565b604051806040016040528060008152602001606081525090565b8280546119fa906122fa565b90600052602060002090601f016020900481019282611a1c5760008555611a63565b82601f10611a3557805160ff1916838001178555611a63565b82800160010185558215611a63579182015b82811115611a62578251825591602001919060010190611a47565b5b509050611a709190611a74565b5090565b5b80821115611a8d576000816000905550600101611a75565b5090565b6000604051905090565b600080fd5b600080fd5b60007fffffffff0000000000000000000000000000000000000000000000000000000082169050919050565b611ada81611aa5565b8114611ae557600080fd5b50565b600081359050611af781611ad1565b92915050565b600060208284031215611b1357611b12611a9b565b5b6000611b2184828501611ae8565b91505092915050565b60008115159050919050565b611b3f81611b2a565b82525050565b6000602082019050611b5a6000830184611b36565b92915050565b600081519050919050565b600082825260208201905092915050565b60005b83811015611b9a578082015181840152602081019050611b7f565b83811115611ba9576000848401525b50505050565b6000601f19601f8301169050919050565b6000611bcb82611b60565b611bd58185611b6b565b9350611be5818560208601611b7c565b611bee81611baf565b840191505092915050565b60006020820190508181036000830152611c138184611bc0565b905092915050565b6000819050919050565b611c2e81611c1b565b8114611c3957600080fd5b50565b600081359050611c4b81611c25565b92915050565b600060208284031215611c6757611c66611a9b565b5b6000611c7584828501611c3c565b91505092915050565b600073ffffffffffffffffffffffffffffffffffffffff82169050919050565b6000611ca982611c7e565b9050919050565b611cb981611c9e565b82525050565b6000602082019050611cd46000830184611cb0565b92915050565b611ce381611c9e565b8114611cee57600080fd5b50565b600081359050611d0081611cda565b92915050565b60008060408385031215611d1d57611d1c611a9b565b5b6000611d2b85828601611cf1565b9250506020611d3c85828601611c3c565b9150509250929050565b600080600060608486031215611d5f57611d5e611a9b565b5b6000611d6d86828701611cf1565b9350506020611d7e86828701611cf1565b9250506040611d8f86828701611c3c565b9150509250925092565b600081519050919050565b600082825260208201905092915050565b6000819050602082019050919050565b611dce81611c1b565b82525050565b600082825260208201905092915050565b6000611df082611b60565b611dfa8185611dd4565b9350611e0a818560208601611b7c565b611e1381611baf565b840191505092915050565b6000604083016000830151611e366000860182611dc5565b5060208301518482036020860152611e4e8282611de5565b9150508091505092915050565b6000611e678383611e1e565b905092915050565b6000602082019050919050565b6000611e8782611d99565b611e918185611da4565b935083602082028501611ea385611db5565b8060005b85811015611edf5784840389528151611ec08582611e5b565b9450611ecb83611e6f565b925060208a01995050600181019050611ea7565b50829750879550505050505092915050565b60006020820190508181036000830152611f0b8184611e7c565b905092915050565b600060208284031215611f2957611f28611a9b565b5b6000611f3784828501611cf1565b91505092915050565b611f4981611c1b565b82525050565b6000602082019050611f646000830184611f40565b92915050565b611f7381611b2a565b8114611f7e57600080fd5b50565b600081359050611f9081611f6a565b92915050565b60008060408385031215611fad57611fac611a9b565b5b6000611fbb85828601611cf1565b9250506020611fcc85828601611f81565b9150509250929050565b600080fd5b600080fd5b7f4e487b7100000000000000000000000000000000000000000000000000000000600052604160045260246000fd5b61201882611baf565b810181811067ffffffffffffffff8211171561203757612036611fe0565b5b80604052505050565b600061204a611a91565b9050612056828261200f565b919050565b600067ffffffffffffffff82111561207657612075611fe0565b5b61207f82611baf565b9050602081019050919050565b82818337600083830152505050565b60006120ae6120a98461205b565b612040565b9050828152602081018484840111156120ca576120c9611fdb565b5b6120d584828561208c565b509392505050565b600082601f8301126120f2576120f1611fd6565b5b813561210284826020860161209b565b91505092915050565b6000806000806080858703121561212557612124611a9b565b5b600061213387828801611cf1565b945050602061214487828801611cf1565b935050604061215587828801611c3c565b925050606085013567ffffffffffffffff81111561217657612175611aa0565b5b612182878288016120dd565b91505092959194509250565b600067ffffffffffffffff8211156121a9576121a8611fe0565b5b6121b282611baf565b9050602081019050919050565b60006121d26121cd8461218e565b612040565b9050828152602081018484840111156121ee576121ed611fdb565b5b6121f984828561208c565b509392505050565b600082601f83011261221657612215611fd6565b5b81356122268482602086016121bf565b91505092915050565b6000806040838503121561224657612245611a9b565b5b600061225485828601611cf1565b925050602083013567ffffffffffffffff81111561227557612274611aa0565b5b61228185828601612201565b9150509250929050565b600080604083850312156122a2576122a1611a9b565b5b60006122b085828601611cf1565b92505060206122c185828601611cf1565b9150509250929050565b7f4e487b7100000000000000000000000000000000000000000000000000000000600052602260045260246000fd5b6000600282049050600182168061231257607f821691505b60208210811415612326576123256122cb565b5b50919050565b7f4552433732313a20617070726f76656420717565727920666f72206e6f6e657860008201527f697374656e7420746f6b656e0000000000000000000000000000000000000000602082015250565b6000612388602c83611b6b565b91506123938261232c565b604082019050919050565b600060208201905081810360008301526123b78161237b565b9050919050565b7f4552433732313a20617070726f76616c20746f2063757272656e74206f776e6560008201527f7200000000000000000000000000000000000000000000000000000000000000602082015250565b600061241a602183611b6b565b9150612425826123be565b604082019050919050565b600060208201905081810360008301526124498161240d565b9050919050565b7f4552433732313a20617070726f76652063616c6c6572206973206e6f74206f7760008201527f6e6572206e6f7220617070726f76656420666f7220616c6c0000000000000000602082015250565b60006124ac603883611b6b565b91506124b782612450565b604082019050919050565b600060208201905081810360008301526124db8161249f565b9050919050565b7f4552433732313a207472616e736665722063616c6c6572206973206e6f74206f60008201527f776e6572206e6f7220617070726f766564000000000000000000000000000000602082015250565b600061253e603183611b6b565b9150612549826124e2565b604082019050919050565b6000602082019050818103600083015261256d81612531565b9050919050565b7f4e487b7100000000000000000000000000000000000000000000000000000000600052603260045260246000fd5b7f4e487b7100000000000000000000000000000000000000000000000000000000600052601160045260246000fd5b60006125dd82611c1b565b91507fffffffffffffffffffffffffffffffffffffffffffffffffffffffffffffffff8214156126105761260f6125a3565b5b600182019050919050565b7f4552433732313a206f776e657220717565727920666f72206e6f6e657869737460008201527f656e7420746f6b656e0000000000000000000000000000000000000000000000602082015250565b6000612677602983611b6b565b91506126828261261b565b604082019050919050565b600060208201905081810360008301526126a68161266a565b9050919050565b7f4552433732313a2062616c616e636520717565727920666f7220746865207a6560008201527f726f206164647265737300000000000000000000000000000000000000000000602082015250565b6000612709602a83611b6b565b9150612714826126ad565b604082019050919050565b60006020820190508181036000830152612738816126fc565b9050919050565b7f4f776e61626c653a2063616c6c6572206973206e6f7420746865206f776e6572600082015250565b6000612775602083611b6b565b91506127808261273f565b602082019050919050565b600060208201905081810360008301526127a481612768565b9050919050565b7f4552433732313a20617070726f766520746f2063616c6c657200000000000000600082015250565b60006127e1601983611b6b565b91506127ec826127ab565b602082019050919050565b60006020820190508181036000830152612810816127d4565b9050919050565b7f4f776e61626c653a206e6577206f776e657220697320746865207a65726f206160008201527f6464726573730000000000000000000000000000000000000000000000000000602082015250565b6000612873602683611b6b565b915061287e82612817565b604082019050919050565b600060208201905081810360008301526128a281612866565b9050919050565b7f4552433732313a206f70657261746f7220717565727920666f72206e6f6e657860008201527f697374656e7420746f6b656e0000000000000000000000000000000000000000602082015250565b6000612905602c83611b6b565b9150612910826128a9565b604082019050919050565b60006020820190508181036000830152612934816128f8565b9050919050565b7f4552433732313a207472616e73666572206f6620746f6b656e2074686174206960008201527f73206e6f74206f776e0000000000000000000000000000000000000000000000602082015250565b6000612997602983611b6b565b91506129a28261293b565b604082019050919050565b600060208201905081810360008301526129c68161298a565b9050919050565b7f4552433732313a207472616e7366657220746f20746865207a65726f2061646460008201527f7265737300000000000000000000000000000000000000000000000000000000602082015250565b6000612a29602483611b6b565b9150612a34826129cd565b604082019050919050565b60006020820190508181036000830152612a5881612a1c565b9050919050565b6000612a6a82611c1b565b9150612a7583611c1b565b925082821015612a8857612a876125a3565b5b828203905092915050565b6000612a9e82611c1b565b9150612aa983611c1b565b9250827fffffffffffffffffffffffffffffffffffffffffffffffffffffffffffffffff03821115612ade57612add6125a3565b5b828201905092915050565b7f4552433732313a207472616e7366657220746f206e6f6e20455243373231526560008201527f63656976657220696d706c656d656e7465720000000000000000000000000000602082015250565b6000612b45603283611b6b565b9150612b5082612ae9565b604082019050919050565b60006020820190508181036000830152612b7481612b38565b9050919050565b7f4552433732313a206d696e7420746f20746865207a65726f2061646472657373600082015250565b6000612bb1602083611b6b565b9150612bbc82612b7b565b602082019050919050565b60006020820190508181036000830152612be081612ba4565b9050919050565b7f4552433732313a20746f6b656e20616c7265616479206d696e74656400000000600082015250565b6000612c1d601c83611b6b565b9150612c2882612be7565b602082019050919050565b60006020820190508181036000830152612c4c81612c10565b9050919050565b600081519050919050565b600082825260208201905092915050565b6000612c7a82612c53565b612c848185612c5e565b9350612c94818560208601611b7c565b612c9d81611baf565b840191505092915050565b6000608082019050612cbd6000830187611cb0565b612cca6020830186611cb0565b612cd76040830185611f40565b8181036060830152612ce98184612c6f565b905095945050505050565b600081519050612d0381611ad1565b92915050565b600060208284031215612d1f57612d1e611a9b565b5b6000612d2d84828501612cf4565b9150509291505056fea2646970667358221220b8ef4dc09a63cd2176d9c2d3e6f37f131150b7daa7bbbf9a2d3270a58a107ca364736f6c63430008090033",
  "immutableReferences": {},
  "source": "// SPDX-License-Identifier: MIT\n\npragma solidity ^0.8.0; // using ^0.8.0 as getting an error but would like to fix the version to 0.8.0 specifically based on the sceurity recommendation in the course\n\nimport \"openzeppelin-solidity/contracts/token/ERC721/ERC721.sol\";\nimport \"openzeppelin-solidity/contracts/utils/Counters.sol\";\nimport \"openzeppelin-solidity/contracts/access/Ownable.sol\"; // using this for now as simpler to implement than full RBAC\n\n\n/// @title A minter for Non-Fungible Tokens\n/// @author 0xCryptoStefan\n/// @notice This contract allows you to to mint a NFT associated with this project\n/// @dev This contract inherits from the OpenZeppelin standard templates specified above and add specific function overrides where required\ncontract Minter is ERC721, Ownable {\n    using Counters for Counters.Counter;\n    using Strings for uint256;\n    Counters.Counter _tokenIDs;\n    mapping(uint256 => string) _tokenURIs; // this line is to map the tokenIDs to the tokenURIs for the images / metadata associated with the NFT\n    string public contractName = \"Smart Contract\";\n\n/* \n* Events\n*/\n\n// <LogForSale event: sku arg>\nevent Minted(uint256 newID);\n// <LogSold event: sku arg>\n// event LogSold(uint sku);\n\n\n\n    // Do I need to declare this as public?  This is intended to simplify pulling all minted NFT IDs and associated URIs into the front-end dApp\n    struct allTokens {\n        uint256 id;\n        string uri;\n    }\n\n    // change the parameters in the constructor to something more interesting\n    // ERC721(name_of_token, ticker) referred to in the main contract template as _name and _symbol\n    constructor () ERC721(\"Dev Bootcamp Project\",\"DBP\") {}\n\n\n    /// @notice This function sets the URI for the NFT you wish to mint\n    /// @dev This function calls on the _tokenURIs mapping defined above and assigns the specific input _tokenURI to the mapped tokenID\n    /// @param tokenID The ID of the token with which to associate the input URI _tokenURI\n    /// @param _tokenURI The input URI to be associated with the tokenID\n    function _setTokenURI(uint256 tokenID, string memory _tokenURI) internal { // only to be used within the contract so setting scope to internal and prefixing with an underscore _setTokenURI()\n        _tokenURIs[tokenID] = _tokenURI; // call the mapping _tokenURIs and set the _tokenURI for tokenID\n    }\n\n\n    /// @notice This function gets all of the minted tokens from the smart contract\n    /// @dev This function is used to simplify displaying all of the minted NFTs from the contract in the front-end\n    /// @return allTokens[] which is an array of all of the tokens minted to-date that can be stepped through in the front-end to display each of the NFTs\n    function getAllTokens() public view returns(allTokens[] memory) {\n        uint256 latestMintID = _tokenIDs.current(); // Get the ID of the most recently minted token\n        uint256 counter = 0; // initiate the counter to 0\n        allTokens[] memory resultArray = new allTokens[](latestMintID); // \n        for(uint256 i=0; i < latestMintID; i++) {\n            if(_exists(counter)) {\n                string memory uri = tokenURI(counter); // get the URI associated with the tokenID with number counter\n                resultArray[counter] = allTokens(counter, uri); // add the result to the results array -> resultArray\n            }\n            counter++;\n        }\n        return resultArray;\n    }\n\n\n    /// @notice This function mints your NFT to your address\n    /// @dev This function mints the NFT with the URI stored in the uri input variable\n    /// @param recipient The ID of the token with which to associate the input URI _tokenURI\n    /// @param uri The input URI to be associated with the tokenID\n    /// @return newID The ID of the NFT that has just been minted\n    function mint(address recipient, string memory uri) public returns(uint256) { // review whether this should be a public function or not.  Currently want this public to allow anyone to mint, but will need to review if I add a function to allow free mints for contract Owner (onlyOwner modifier or update to use full RBAC) versus other people\n        uint256 newID = _tokenIDs.current(); // Get the current state of _tokenIDs to ensure minting the next available in the series\n        _mint(recipient, newID); // calling the _mint() function from the ERC721 standard\n        _setTokenURI(newID, uri); // this function calls the internal function to set the URI based on the input to THIS function (uri) and the NFT to be minted (newID)\n        // check this next line is secure to increment here rather than earlier based on the points in the course around security\n        _tokenIDs.increment(); // increase the value of tokenIDs at the end of the minting function so that the next mint uses the correct value when _tokenIDs.current() is called\n        emit Minted(newID); // added an emit event to allow verification test\n        return newID;\n    }\n\n\n    /// @notice This function is a read-only function for looking up the URI associated with a specific tokenID\n    /// @dev This function uses override to ensure no conflict with the underlying function tokenURI() from the ERC721 standard template from OpenZeppelin\n    /// @param tokenID The ID of the token to be looked up for its matching URI\n    /// @return _tokenURI The URI of the the token requested with ID matching tokenID\n    // This function tokenURI() is to allow other applications to be able to view the URI and associated metadata for the tokenID that is input.\n    // override is needed to ensure no conflict with the underlying tokenURI() from the ERC721 standard - can I adjust to getTokenURI() for improved readability or will that not adhere to the standard for 721 and not work on OpenSea etc?\n    function tokenURI(uint256 tokenID) public view virtual override returns(string memory) { // this is to allo\n        require(_exists(tokenID)); // ensure there is a break if someone calls this function for a tokenID that does not exist in the mapping\n        string memory _tokenURI = _tokenURIs[tokenID]; // get the value of the URI for tokenID from the _tokenURIs mapping\n        return _tokenURI;\n    }\n}",
  "sourcePath": "/home/sakura/dev/blockchain-developer-bootcamp-final-project/contracts/Minter.sol",
  "compiler": {
    "name": "solc",
    "version": "0.8.9+commit.e5eed63a.Emscripten.clang"
  },
  "schemaVersion": "3.4.3",
  "updatedAt": "2021-10-11T15:26:50.206Z",
  "networkType": "ethereum",
  "devdoc": {
    "author": "0xCryptoStefan",
    "details": "This contract inherits from the OpenZeppelin standard templates specified above and add specific function overrides where required",
    "kind": "dev",
    "methods": {
      "approve(address,uint256)": {
        "details": "See {IERC721-approve}."
      },
      "balanceOf(address)": {
        "details": "See {IERC721-balanceOf}."
      },
      "getAllTokens()": {
        "details": "This function is used to simplify displaying all of the minted NFTs from the contract in the front-end",
        "returns": {
          "_0": "allTokens[] which is an array of all of the tokens minted to-date that can be stepped through in the front-end to display each of the NFTs"
        }
      },
      "getApproved(uint256)": {
        "details": "See {IERC721-getApproved}."
      },
      "isApprovedForAll(address,address)": {
        "details": "See {IERC721-isApprovedForAll}."
      },
      "mint(address,string)": {
        "details": "This function mints the NFT with the URI stored in the uri input variable",
        "params": {
          "recipient": "The ID of the token with which to associate the input URI _tokenURI",
          "uri": "The input URI to be associated with the tokenID"
        },
        "returns": {
          "_0": "newID The ID of the NFT that has just been minted"
        }
      },
      "name()": {
        "details": "See {IERC721Metadata-name}."
      },
      "owner()": {
        "details": "Returns the address of the current owner."
      },
      "ownerOf(uint256)": {
        "details": "See {IERC721-ownerOf}."
      },
      "renounceOwnership()": {
        "details": "Leaves the contract without owner. It will not be possible to call `onlyOwner` functions anymore. Can only be called by the current owner. NOTE: Renouncing ownership will leave the contract without an owner, thereby removing any functionality that is only available to the owner."
      },
      "safeTransferFrom(address,address,uint256)": {
        "details": "See {IERC721-safeTransferFrom}."
      },
      "safeTransferFrom(address,address,uint256,bytes)": {
        "details": "See {IERC721-safeTransferFrom}."
      },
      "setApprovalForAll(address,bool)": {
        "details": "See {IERC721-setApprovalForAll}."
      },
      "supportsInterface(bytes4)": {
        "details": "See {IERC165-supportsInterface}."
      },
      "symbol()": {
        "details": "See {IERC721Metadata-symbol}."
      },
      "tokenURI(uint256)": {
        "details": "This function uses override to ensure no conflict with the underlying function tokenURI() from the ERC721 standard template from OpenZeppelin",
        "params": {
          "tokenID": "The ID of the token to be looked up for its matching URI"
        },
        "returns": {
          "_0": "_tokenURI The URI of the the token requested with ID matching tokenID"
        }
      },
      "transferFrom(address,address,uint256)": {
        "details": "See {IERC721-transferFrom}."
      },
      "transferOwnership(address)": {
        "details": "Transfers ownership of the contract to a new account (`newOwner`). Can only be called by the current owner."
      }
    },
    "title": "A minter for Non-Fungible Tokens",
    "version": 1
  },
  "userdoc": {
    "kind": "user",
    "methods": {
      "getAllTokens()": {
        "notice": "This function gets all of the minted tokens from the smart contract"
      },
      "mint(address,string)": {
        "notice": "This function mints your NFT to your address"
      },
      "tokenURI(uint256)": {
        "notice": "This function is a read-only function for looking up the URI associated with a specific tokenID"
      }
    },
    "notice": "This contract allows you to to mint a NFT associated with this project",
    "version": 1
  }
}